:020000040000FA
:0400000000001629BD
:040004000034003490
:08000800A000030EA1000A088C
:10001000A2000C1B10280B1913288C1A3228112946
:1000200039140C1311290B11E1308100B71A851214
:10003000B30B11290230B300B71E202885162128E2
:100040008512B50B11290230B500B71E8516B914FB
:10005000B60B11290230B600B40B11293230B400AE
:10006000371711291A08B000881500303002031D17
:100070003C2809143814112901303002031D42288C
:10008000B814112902303002031D482838151129EF
:1000900003303002031D4F280915B815112904300B
:1000A0003002031D562889143816112905303002F4
:1000B000031D5D28B8160816112909303002031DEA
:1000C00066288312031330089B0011290A3030027E
:1000D000031D6F2883120313300895001129133074
:1000E0003002031D78288312031330089B00112966
:1000F00014303002031D8128831203133008950049
:1001000011291D303002031D8A2883120313300881
:100110009B0011291E303002031D93288312031304
:1001200030089500112927303002031D9C288312C6
:10013000031330089B00112928303002031DA52825
:100140008312031330089500112931303002031D4A
:10015000AE288312031330089B001129323030027D
:10016000031DB728831203133008950011293B3073
:100170003002031DC0288312031330089B0011298D
:100180003C303002031DC928831203133008950048
:10019000112945303002031DD22883120313300881
:1001A0009B00112946303002031DDB288312031304
:1001B0003008950011294F303002031DE4288312C6
:1001C000031330089B00112950303002031DED2825
:1001D0008312031330089500112959303002031D92
:1001E000F6288312031330089B0011295A3030027D
:1001F000031DFF2883120313300895001129633073
:100200003002031D08298312031330089B001129B3
:1002100064303002031D1129831203133008950046
:100220001129210E8300A00E200E0900831603134E
:100230000F178F120F168F110F150F14831603133C
:10024000850186018701880189010B178B178B16A1
:10025000831603130C178B168316031788010814D3
:100260008814890183160313051485148515051652
:1002700007148715071687160717871783160313A2
:10028000811281110115811001100D221E22F12110
:100290009625831203130C13831603138C168312F3
:1002A0000313850186018701880189010030C4009C
:1002B0000030AC000030AD000030BA000030BB00B0
:1002C0000030BD000030BE000030BF000030C00074
:1002D0000030C1000030C2000030C3000030C50053
:1002E0000030A4000030A5000030A6000030A700B8
:1002F0000030A8000030A9000030AA000030AB0098
:100300000030AE000030AF000030BC000030B10063
:100310000030B200FF30A3000230B3000330B5005C
:100320000230B600E13081000030B7000030B80084
:100330003230B4003714B7170814B9153916B9128A
:1003400039133C26371CCC29831203139F121F122A
:100350009F111F11D221D221831203139F14391C24
:10036000AF29831203131E08DF21AE002E0895006B
:1003700039109F121F129F111F15D221D2218312F3
:1003800003139F14391CC229831203131E08DF2193
:10039000AF002F089B003910831203136522371C0E
:1003A0006A26A229A30BD229FF30A3000800BB00B4
:1003B0003230BA00BA0BDA29BB0BD8290800B200D8
:1003C000B1010310B20C32080319ED29B107B20CC8
:1003D00032080319ED29B102E1293108B1073108CA
:1003E0000800831603139A01831603130C30990037
:1003F000831603131811831603178711831603132B
:1004000018128312031398171816831603139816DD
:1004100083120313FF3099000800831203139F1304
:100420001F179F121F129F111F11831603139F1274
:100430001F129F13831203131F1408008316031344
:1004400087148316031355309200831203139D15EE
:100450001D159D101D109D121D12831203130030D7
:100460009B00831203138C10831203139214121433
:100470001215831203138C1C3B2A8C108316031352
:100480008710831603130715831603139B309200FE
:100490008312031397151715971017109712171239
:1004A0008312031300309B00831203138C108312FA
:1004B0000313921412141215831203138C1C5E2A58
:1004C0008C1083160313071108003818042BB81872
:1004D000BF2B3819782CB819312D381A6E2DB81A4F
:1004E000872D8719862A071A412B871AFC2B851915
:1004F000B52C051A6E2D0718872D3713B717B710AF
:100500003711B71137120030B8000800B71C042BA0
:10051000371F0800831203130030AC00831203134B
:100520002E08A400831603178C18942A8312031331
:100530002C08831203178D008312031324088312DF
:1005400003178C00831603178C130C158B1355306F
:100550008D00AA308D008C148B170C118316031399
:100560000D1203138312AC0A2F08A500831603177C
:100570008C18B82A831203132C08831203178D00DA
:10058000831203132508831203178C0083160317A5
:100590008C130C158B1355308D00AA308D008C14E4
:1005A0008B170C11831603130D1203138312AC0A5D
:1005B000B71ADB2ADE2A0130A400E12A0030A400A9
:1005C000E12A831603178C18E32A831203132C08DD
:1005D000831203178D008312031324088312031759
:1005E0008C00831603178C130C158B1355308D005C
:1005F000AA308D008C148B170C11831603130D1267
:1006000003138312081708000030AD008312031390
:100610002D08831203178D00831603178C130C14F7
:10062000831203170C0803139500AD0A2D088312DB
:1006300003178D00831603178C130C1483120317F2
:100640000C0803139B00AD0A2D08831203178D00BD
:10065000831603178C130C14831203170C0803134F
:10066000BC003C18342B362BB716382BB712382B5E
:100670008814B7143711B7113712B7170030B80004
:100680000800371DBF2B371F0800831203131030DB
:10069000AC00831203132E08A400831603178C18D2
:1006A0004F2B831203132C08831203178D00831220
:1006B00003132408831203178C00831603178C136B
:1006C0000C158B1355308D00AA308D008C148B17B0
:1006D0000C11831603130D1203138312AC0A2F0897
:1006E000A500831603178C18732B831203132C0891
:1006F000831203178D008312031325088312031737
:100700008C00831603178C130C158B1355308D003A
:10071000AA308D008C148B170C11831603130D1245
:1007200003138312AC0AB71E962B992B0130A40039
:100730009C2B0030A4009C2B831603178C189E2B37
:10074000831203132C08831203178D0083120313E3
:100750002408831203178C00831603178C130C15BF
:100760008B1355308D00AA308D008C148B170C1113
:10077000831603130D120313831208170800103099
:10078000AD00831203132D08831203178D00831607
:1007900003178C130C14831203170C080313950012
:1007A000AD0A2D08831203178D00831603178C13CF
:1007B0000C14831203170C0803139B00AD0A2D08B9
:1007C000831203178D00831603178C130C148312E6
:1007D00003170C080313BC003C18EF2BF12BB716C2
:1007E000F32BB712F32B08153715B710B7113712C3
:1007F000B7170030B8000800B71D782C371F080065
:100800002030AC00831203132E08A40083160317B4
:100810008C18082C831203132C08831203178D00E5
:10082000831203132408831203178C008316031703
:100830008C130C158B1355308D00AA308D008C1441
:100840008B170C11831603130D1203138312AC0ABA
:100850002F08A400831603178C182C2C8312031363
:100860002C08831203178D008312031324088312AC
:1008700003178C00831603178C130C158B1355303C
:100880008D00AA308D008C148B170C118316031366
:100890000D1203138312AC0AB71E4F2C522C0130D9
:1008A000A400552C0030A400552C831603178C1877
:1008B000572C831203132C08831203178D00831205
:1008C00003132408831203178C00831603178C1359
:1008D0000C158B1355308D00AA308D008C148B179E
:1008E0000C11831603130D1203138312081708004B
:1008F0002030AD00831203132D08831203178D00DF
:10090000831603178C130C14831203170C0803139C
:100910009500AD0A2D08831203178D008316031767
:100920008C130C14831203170C0803139B00AD0ADD
:100930002D08831203178D00831603178C130C14D4
:10094000831203170C080313BC003C18A82CAA2C14
:10095000B716AC2CB712AC2C8815B715B7103711D9
:100960003712B7170030B8000800371E312D371F77
:1009700008003030AC00831203132E08A400831645
:1009800003178C18C12C831203132C08831203172E
:100990008D00831203132408831203178C0083161F
:1009A00003178C130C158B1355308D00AA308D0056
:1009B0008C148B170C11831603130D12031383125F
:1009C000AC0A2F08A400831603178C18E52C831299
:1009D00003132C08831203178D00831203132408BA
:1009E000831203178C00831603178C130C158B13BB
:1009F00055308D00AA308D008C148B170C11831686
:100A000003130D1203138312AC0AB71E082D0B2D0E
:100A10000130A4000E2D0030A4000E2D8316031704
:100A20008C18102D831203132C08831203178D00CA
:100A3000831203132408831203178C0083160317F1
:100A40008C130C158B1355308D00AA308D008C142F
:100A50008B170C11831603130D120313831208173F
:100A600008003030AD00831203132D0883120317E2
:100A70008D00831603178C130C14831203170C08B4
:100A800003139500AD0A2D08831203178D008316FA
:100A900003178C130C14831203170C0803139B0009
:100AA000AD0A2D08831203178D00831603178C13CC
:100AB0000C14831203170C080313BC003C18612D9F
:100AC000632DB716652DB712652D08163716B710AA
:100AD000B7113711B7170030B80008000030B80060
:100AE000B71F08008816B71E772D7F2D08008813C2
:100AF000B713B716B7103711B71137120800881798
:100B0000B713B712B7103711B711371208000030FA
:100B1000B800B71F0800B7133718902D932D0800A1
:100B20000810371008000814371408008312031344
:100B30008B13C830D721C830D721C830D721C8304F
:100B4000D721C830D721C830D721C830D721643049
:100B5000D72186120612861106118614061416264F
:100B6000C830D721C830D721861206128611061147
:100B70008614061416260A30D7218612061286110C
:100B80000611861406141626861206128611061100
:100B90008614061016268612061286110611861471
:100BA00006101626861206128615061186100610E5
:100BB00016268612061286110611861006101626B3
:100BC0008612061286150611861006101626861243
:100BD00006128611061186100610162686120612B7
:100BE0008611061186100614162686120612861124
:100BF0000611861006101626861206128611061594
:100C00008614061016268612061286110611861004
:100C10000610162686120612861506158610061070
:100C200016260616831203138B170800861600007B
:100C3000000000008612C830D721C830D721080034
:100C4000BD008611061186100610BD1B86153D1BC2
:100C50000615BD1A86143D1A0614162686110611AD
:100C600086100610BD1986153D190615BD18861487
:100C70003D18061416260800061286150611861061
:100C80000610162606128611061186100610162664
:100C90000616533020264530202652302026563066
:100CA00020264F30202620302026313020262030AC
:100CB000202653302026453020265230202656301C
:100CC00020264F302026203020263230202620308B
:100CD0002026080006128615061586100610162610
:100CE00006128611061186100610162606162030EA
:100CF00020262A3020261B08B126BE003E08303EA2
:100D000020261B08BA26BF003F08303E20261B08BD
:100D1000C326C0004008303E20262A30202620303E
:100D20002026203020260616203020262A30202695
:100D30001508B126C1004108303E20261508BA2604
:100D4000C2004208303E20261508C326C3004308CF
:100D5000303E20262A302026203020262030202613
:100D60000800C400C5016430C50AC4020318B32ECC
:100D700045030800C400C5010A30C50AC4020318AF
:100D8000BC2E4503C32EC5000A30C5020318C52E6C
:040D9000450708000B
:02400E00E228A6
:02401000FF3E71
:00000001FF
